{
  "_format": "hh-sol-artifact-1",
  "contractName": "WCFX",
  "sourceName": "contracts/WCFX.sol",
  "abi": [
    {
      "anonymous": false,
      "inputs": [
        {
          "indexed": true,
          "internalType": "address",
          "name": "src",
          "type": "address"
        },
        {
          "indexed": true,
          "internalType": "address",
          "name": "guy",
          "type": "address"
        },
        {
          "indexed": false,
          "internalType": "uint256",
          "name": "wad",
          "type": "uint256"
        }
      ],
      "name": "Approval",
      "type": "event"
    },
    {
      "anonymous": false,
      "inputs": [
        {
          "indexed": true,
          "internalType": "address",
          "name": "dst",
          "type": "address"
        },
        {
          "indexed": false,
          "internalType": "uint256",
          "name": "wad",
          "type": "uint256"
        }
      ],
      "name": "Deposit",
      "type": "event"
    },
    {
      "anonymous": false,
      "inputs": [
        {
          "indexed": true,
          "internalType": "address",
          "name": "src",
          "type": "address"
        },
        {
          "indexed": true,
          "internalType": "address",
          "name": "dst",
          "type": "address"
        },
        {
          "indexed": false,
          "internalType": "uint256",
          "name": "wad",
          "type": "uint256"
        }
      ],
      "name": "Transfer",
      "type": "event"
    },
    {
      "anonymous": false,
      "inputs": [
        {
          "indexed": true,
          "internalType": "address",
          "name": "src",
          "type": "address"
        },
        {
          "indexed": false,
          "internalType": "uint256",
          "name": "wad",
          "type": "uint256"
        }
      ],
      "name": "Withdrawal",
      "type": "event"
    },
    {
      "inputs": [],
      "name": "a",
      "outputs": [],
      "stateMutability": "payable",
      "type": "function"
    },
    {
      "inputs": [
        {
          "internalType": "address",
          "name": "",
          "type": "address"
        },
        {
          "internalType": "address",
          "name": "",
          "type": "address"
        }
      ],
      "name": "allowance",
      "outputs": [
        {
          "internalType": "uint256",
          "name": "",
          "type": "uint256"
        }
      ],
      "stateMutability": "view",
      "type": "function"
    },
    {
      "inputs": [
        {
          "internalType": "address",
          "name": "guy",
          "type": "address"
        },
        {
          "internalType": "uint256",
          "name": "wad",
          "type": "uint256"
        }
      ],
      "name": "approve",
      "outputs": [
        {
          "internalType": "bool",
          "name": "",
          "type": "bool"
        }
      ],
      "stateMutability": "nonpayable",
      "type": "function"
    },
    {
      "inputs": [
        {
          "internalType": "address",
          "name": "",
          "type": "address"
        }
      ],
      "name": "balanceOf",
      "outputs": [
        {
          "internalType": "uint256",
          "name": "",
          "type": "uint256"
        }
      ],
      "stateMutability": "view",
      "type": "function"
    },
    {
      "inputs": [],
      "name": "decimals",
      "outputs": [
        {
          "internalType": "uint8",
          "name": "",
          "type": "uint8"
        }
      ],
      "stateMutability": "view",
      "type": "function"
    },
    {
      "inputs": [],
      "name": "deposit",
      "outputs": [],
      "stateMutability": "payable",
      "type": "function"
    },
    {
      "inputs": [],
      "name": "name",
      "outputs": [
        {
          "internalType": "string",
          "name": "",
          "type": "string"
        }
      ],
      "stateMutability": "view",
      "type": "function"
    },
    {
      "inputs": [],
      "name": "symbol",
      "outputs": [
        {
          "internalType": "string",
          "name": "",
          "type": "string"
        }
      ],
      "stateMutability": "view",
      "type": "function"
    },
    {
      "inputs": [],
      "name": "totalSupply",
      "outputs": [
        {
          "internalType": "uint256",
          "name": "",
          "type": "uint256"
        }
      ],
      "stateMutability": "view",
      "type": "function"
    },
    {
      "inputs": [
        {
          "internalType": "address",
          "name": "dst",
          "type": "address"
        },
        {
          "internalType": "uint256",
          "name": "wad",
          "type": "uint256"
        }
      ],
      "name": "transfer",
      "outputs": [
        {
          "internalType": "bool",
          "name": "",
          "type": "bool"
        }
      ],
      "stateMutability": "nonpayable",
      "type": "function"
    },
    {
      "inputs": [
        {
          "internalType": "address",
          "name": "src",
          "type": "address"
        },
        {
          "internalType": "address",
          "name": "dst",
          "type": "address"
        },
        {
          "internalType": "uint256",
          "name": "wad",
          "type": "uint256"
        }
      ],
      "name": "transferFrom",
      "outputs": [
        {
          "internalType": "bool",
          "name": "",
          "type": "bool"
        }
      ],
      "stateMutability": "nonpayable",
      "type": "function"
    },
    {
      "inputs": [
        {
          "internalType": "uint256",
          "name": "wad",
          "type": "uint256"
        }
      ],
      "name": "withdraw",
      "outputs": [],
      "stateMutability": "nonpayable",
      "type": "function"
    }
  ],
  "bytecode": "0x60806040526040518060400160405280600b81526020017f57726170706564204346580000000000000000000000000000000000000000008152506000908051906020019062000051929190620000d0565b506040518060400160405280600481526020017f5743465800000000000000000000000000000000000000000000000000000000815250600190805190602001906200009f929190620000d0565b506012600260006101000a81548160ff021916908360ff160217905550348015620000c957600080fd5b50620001e5565b828054620000de9062000180565b90600052602060002090601f0160209004810192826200010257600085556200014e565b82601f106200011d57805160ff19168380011785556200014e565b828001600101855582156200014e579182015b828111156200014d57825182559160200191906001019062000130565b5b5090506200015d919062000161565b5090565b5b808211156200017c57600081600090555060010162000162565b5090565b600060028204905060018216806200019957607f821691505b60208210811415620001b057620001af620001b6565b5b50919050565b7f4e487b7100000000000000000000000000000000000000000000000000000000600052602260045260246000fd5b610ede80620001f56000396000f3fe6080604052600436106100a75760003560e01c8063313ce56711610064578063313ce567146101af57806370a08231146101da57806395d89b4114610217578063a9059cbb14610242578063d0e30db01461027f578063dd62ed3e14610289576100a7565b806306fdde03146100ac578063095ea7b3146100d75780630dbe671f1461011457806318160ddd1461011e57806323b872dd146101495780632e1a7d4d14610186575b600080fd5b3480156100b857600080fd5b506100c16102c6565b6040516100ce9190610c53565b60405180910390f35b3480156100e357600080fd5b506100fe60048036038101906100f99190610b6d565b610354565b60405161010b9190610c38565b60405180910390f35b61011c610446565b005b34801561012a57600080fd5b50610133610450565b6040516101409190610c75565b60405180910390f35b34801561015557600080fd5b50610170600480360381019061016b9190610b1e565b610458565b60405161017d9190610c38565b60405180910390f35b34801561019257600080fd5b506101ad60048036038101906101a89190610ba9565b6107bc565b005b3480156101bb57600080fd5b506101c46108f6565b6040516101d19190610c90565b60405180910390f35b3480156101e657600080fd5b5061020160048036038101906101fc9190610ab9565b610909565b60405161020e9190610c75565b60405180910390f35b34801561022357600080fd5b5061022c610921565b6040516102399190610c53565b60405180910390f35b34801561024e57600080fd5b5061026960048036038101906102649190610b6d565b6109af565b6040516102769190610c38565b60405180910390f35b6102876109c4565b005b34801561029557600080fd5b506102b060048036038101906102ab9190610ae2565b610a6a565b6040516102bd9190610c75565b60405180910390f35b600080546102d390610dd9565b80601f01602080910402602001604051908101604052809291908181526020018280546102ff90610dd9565b801561034c5780601f106103215761010080835404028352916020019161034c565b820191906000526020600020905b81548152906001019060200180831161032f57829003601f168201915b505050505081565b600081600460003373ffffffffffffffffffffffffffffffffffffffff1673ffffffffffffffffffffffffffffffffffffffff16815260200190815260200160002060008573ffffffffffffffffffffffffffffffffffffffff1673ffffffffffffffffffffffffffffffffffffffff168152602001908152602001600020819055508273ffffffffffffffffffffffffffffffffffffffff163373ffffffffffffffffffffffffffffffffffffffff167f8c5be1e5ebec7d5bd14f71427d1e84f3dd0314c0f7b2291e5b200ac8c7c3b925846040516104349190610c75565b60405180910390a36001905092915050565b61044e6109c4565b565b600047905090565b600081600360008673ffffffffffffffffffffffffffffffffffffffff1673ffffffffffffffffffffffffffffffffffffffff1681526020019081526020016000205410156104a657600080fd5b3373ffffffffffffffffffffffffffffffffffffffff168473ffffffffffffffffffffffffffffffffffffffff161415801561057e57507fffffffffffffffffffffffffffffffffffffffffffffffffffffffffffffffff600460008673ffffffffffffffffffffffffffffffffffffffff1673ffffffffffffffffffffffffffffffffffffffff16815260200190815260200160002060003373ffffffffffffffffffffffffffffffffffffffff1673ffffffffffffffffffffffffffffffffffffffff1681526020019081526020016000205414155b156106a05781600460008673ffffffffffffffffffffffffffffffffffffffff1673ffffffffffffffffffffffffffffffffffffffff16815260200190815260200160002060003373ffffffffffffffffffffffffffffffffffffffff1673ffffffffffffffffffffffffffffffffffffffff16815260200190815260200160002054101561060c57600080fd5b81600460008673ffffffffffffffffffffffffffffffffffffffff1673ffffffffffffffffffffffffffffffffffffffff16815260200190815260200160002060003373ffffffffffffffffffffffffffffffffffffffff1673ffffffffffffffffffffffffffffffffffffffff16815260200190815260200160002060008282546106989190610d1d565b925050819055505b81600360008673ffffffffffffffffffffffffffffffffffffffff1673ffffffffffffffffffffffffffffffffffffffff16815260200190815260200160002060008282546106ef9190610d1d565b9250508190555081600360008573ffffffffffffffffffffffffffffffffffffffff1673ffffffffffffffffffffffffffffffffffffffff16815260200190815260200160002060008282546107459190610cc7565b925050819055508273ffffffffffffffffffffffffffffffffffffffff168473ffffffffffffffffffffffffffffffffffffffff167fddf252ad1be2c89b69c2b068fc378daa952ba7f163c4a11628f55a4df523b3ef846040516107a99190610c75565b60405180910390a3600190509392505050565b80600360003373ffffffffffffffffffffffffffffffffffffffff1673ffffffffffffffffffffffffffffffffffffffff16815260200190815260200160002054101561080857600080fd5b80600360003373ffffffffffffffffffffffffffffffffffffffff1673ffffffffffffffffffffffffffffffffffffffff16815260200190815260200160002060008282546108579190610d1d565b925050819055503373ffffffffffffffffffffffffffffffffffffffff166108fc829081150290604051600060405180830381858888f193505050501580156108a4573d6000803e3d6000fd5b503373ffffffffffffffffffffffffffffffffffffffff167f7fcf532c15f0a6db0bd6d0e038bea71d30d808c7d98cb3bf7268a95bf5081b65826040516108eb9190610c75565b60405180910390a250565b600260009054906101000a900460ff1681565b60036020528060005260406000206000915090505481565b6001805461092e90610dd9565b80601f016020809104026020016040519081016040528092919081815260200182805461095a90610dd9565b80156109a75780601f1061097c576101008083540402835291602001916109a7565b820191906000526020600020905b81548152906001019060200180831161098a57829003601f168201915b505050505081565b60006109bc338484610458565b905092915050565b34600360003373ffffffffffffffffffffffffffffffffffffffff1673ffffffffffffffffffffffffffffffffffffffff1681526020019081526020016000206000828254610a139190610cc7565b925050819055503373ffffffffffffffffffffffffffffffffffffffff167fe1fffcc4923d04b559f4d29a8bfc6cda04eb5b0d3c460751c2402c5c5cc9109c34604051610a609190610c75565b60405180910390a2565b6004602052816000526040600020602052806000526040600020600091509150505481565b600081359050610a9e81610e7a565b92915050565b600081359050610ab381610e91565b92915050565b600060208284031215610acb57600080fd5b6000610ad984828501610a8f565b91505092915050565b60008060408385031215610af557600080fd5b6000610b0385828601610a8f565b9250506020610b1485828601610a8f565b9150509250929050565b600080600060608486031215610b3357600080fd5b6000610b4186828701610a8f565b9350506020610b5286828701610a8f565b9250506040610b6386828701610aa4565b9150509250925092565b60008060408385031215610b8057600080fd5b6000610b8e85828601610a8f565b9250506020610b9f85828601610aa4565b9150509250929050565b600060208284031215610bbb57600080fd5b6000610bc984828501610aa4565b91505092915050565b610bdb81610d63565b82525050565b6000610bec82610cab565b610bf68185610cb6565b9350610c06818560208601610da6565b610c0f81610e69565b840191505092915050565b610c2381610d8f565b82525050565b610c3281610d99565b82525050565b6000602082019050610c4d6000830184610bd2565b92915050565b60006020820190508181036000830152610c6d8184610be1565b905092915050565b6000602082019050610c8a6000830184610c1a565b92915050565b6000602082019050610ca56000830184610c29565b92915050565b600081519050919050565b600082825260208201905092915050565b6000610cd282610d8f565b9150610cdd83610d8f565b9250827fffffffffffffffffffffffffffffffffffffffffffffffffffffffffffffffff03821115610d1257610d11610e0b565b5b828201905092915050565b6000610d2882610d8f565b9150610d3383610d8f565b925082821015610d4657610d45610e0b565b5b828203905092915050565b6000610d5c82610d6f565b9050919050565b60008115159050919050565b600073ffffffffffffffffffffffffffffffffffffffff82169050919050565b6000819050919050565b600060ff82169050919050565b60005b83811015610dc4578082015181840152602081019050610da9565b83811115610dd3576000848401525b50505050565b60006002820490506001821680610df157607f821691505b60208210811415610e0557610e04610e3a565b5b50919050565b7f4e487b7100000000000000000000000000000000000000000000000000000000600052601160045260246000fd5b7f4e487b7100000000000000000000000000000000000000000000000000000000600052602260045260246000fd5b6000601f19601f8301169050919050565b610e8381610d51565b8114610e8e57600080fd5b50565b610e9a81610d8f565b8114610ea557600080fd5b5056fea26469706673582212202dde9cfd60ca9453e1bf429817215561b29331309cd29e842ac2006c9f3d04c864736f6c63430008020033",
  "linkReferences": {},
  "deployedLinkReferences": {}
}