{
  "_format": "hh-sol-artifact-1",
  "contractName": "VotingEscrow",
  "sourceName": "contracts/VotingEscrow.sol",
  "abi": [
    {
      "anonymous": false,
      "inputs": [
        {
          "indexed": true,
          "internalType": "address",
          "name": "account",
          "type": "address"
        },
        {
          "indexed": false,
          "internalType": "uint256",
          "name": "increasedAmount",
          "type": "uint256"
        }
      ],
      "name": "AmountIncreased",
      "type": "event"
    },
    {
      "anonymous": false,
      "inputs": [
        {
          "indexed": true,
          "internalType": "address",
          "name": "account",
          "type": "address"
        },
        {
          "indexed": false,
          "internalType": "uint256",
          "name": "amount",
          "type": "uint256"
        },
        {
          "indexed": false,
          "internalType": "uint256",
          "name": "unlockTime",
          "type": "uint256"
        }
      ],
      "name": "LockCreated",
      "type": "event"
    },
    {
      "anonymous": false,
      "inputs": [
        {
          "indexed": true,
          "internalType": "address",
          "name": "account",
          "type": "address"
        },
        {
          "indexed": false,
          "internalType": "uint256",
          "name": "newUnlockTime",
          "type": "uint256"
        }
      ],
      "name": "UnlockTimeIncreased",
      "type": "event"
    },
    {
      "anonymous": false,
      "inputs": [
        {
          "indexed": true,
          "internalType": "address",
          "name": "account",
          "type": "address"
        }
      ],
      "name": "WhitelistAdminAdded",
      "type": "event"
    },
    {
      "anonymous": false,
      "inputs": [
        {
          "indexed": true,
          "internalType": "address",
          "name": "account",
          "type": "address"
        }
      ],
      "name": "WhitelistAdminRemoved",
      "type": "event"
    },
    {
      "anonymous": false,
      "inputs": [
        {
          "indexed": true,
          "internalType": "address",
          "name": "account",
          "type": "address"
        }
      ],
      "name": "WhitelistedAdded",
      "type": "event"
    },
    {
      "anonymous": false,
      "inputs": [
        {
          "indexed": true,
          "internalType": "address",
          "name": "account",
          "type": "address"
        }
      ],
      "name": "WhitelistedRemoved",
      "type": "event"
    },
    {
      "anonymous": false,
      "inputs": [
        {
          "indexed": true,
          "internalType": "address",
          "name": "account",
          "type": "address"
        },
        {
          "indexed": false,
          "internalType": "uint256",
          "name": "amount",
          "type": "uint256"
        }
      ],
      "name": "Withdrawn",
      "type": "event"
    },
    {
      "inputs": [
        {
          "internalType": "address",
          "name": "account",
          "type": "address"
        }
      ],
      "name": "addWhitelistAdmin",
      "outputs": [],
      "stateMutability": "nonpayable",
      "type": "function"
    },
    {
      "inputs": [
        {
          "internalType": "address",
          "name": "account",
          "type": "address"
        }
      ],
      "name": "addWhitelisted",
      "outputs": [],
      "stateMutability": "nonpayable",
      "type": "function"
    },
    {
      "inputs": [
        {
          "internalType": "address",
          "name": "_account",
          "type": "address"
        }
      ],
      "name": "balanceOf",
      "outputs": [
        {
          "internalType": "uint256",
          "name": "",
          "type": "uint256"
        }
      ],
      "stateMutability": "view",
      "type": "function"
    },
    {
      "inputs": [
        {
          "internalType": "address",
          "name": "_account",
          "type": "address"
        },
        {
          "internalType": "uint256",
          "name": "_timestamp",
          "type": "uint256"
        }
      ],
      "name": "balanceOfAtTimestamp",
      "outputs": [
        {
          "internalType": "uint256",
          "name": "",
          "type": "uint256"
        }
      ],
      "stateMutability": "view",
      "type": "function"
    },
    {
      "inputs": [],
      "name": "checkpoint",
      "outputs": [],
      "stateMutability": "nonpayable",
      "type": "function"
    },
    {
      "inputs": [
        {
          "internalType": "uint256",
          "name": "_amount",
          "type": "uint256"
        },
        {
          "internalType": "uint256",
          "name": "_unlockTime",
          "type": "uint256"
        }
      ],
      "name": "createLock",
      "outputs": [],
      "stateMutability": "nonpayable",
      "type": "function"
    },
    {
      "inputs": [],
      "name": "decimals",
      "outputs": [
        {
          "internalType": "uint8",
          "name": "",
          "type": "uint8"
        }
      ],
      "stateMutability": "view",
      "type": "function"
    },
    {
      "inputs": [
        {
          "internalType": "uint256",
          "name": "",
          "type": "uint256"
        }
      ],
      "name": "historySupply",
      "outputs": [
        {
          "internalType": "uint256",
          "name": "",
          "type": "uint256"
        }
      ],
      "stateMutability": "view",
      "type": "function"
    },
    {
      "inputs": [
        {
          "internalType": "address",
          "name": "_account",
          "type": "address"
        },
        {
          "internalType": "uint256",
          "name": "_amount",
          "type": "uint256"
        }
      ],
      "name": "increaseAmount",
      "outputs": [],
      "stateMutability": "nonpayable",
      "type": "function"
    },
    {
      "inputs": [
        {
          "internalType": "uint256",
          "name": "_unlockTime",
          "type": "uint256"
        }
      ],
      "name": "increaseUnlockTime",
      "outputs": [],
      "stateMutability": "nonpayable",
      "type": "function"
    },
    {
      "inputs": [
        {
          "internalType": "string",
          "name": "_name",
          "type": "string"
        },
        {
          "internalType": "string",
          "name": "_symbol",
          "type": "string"
        },
        {
          "internalType": "uint8",
          "name": "_decimals",
          "type": "uint8"
        },
        {
          "internalType": "address",
          "name": "_token",
          "type": "address"
        }
      ],
      "name": "initialize",
      "outputs": [],
      "stateMutability": "nonpayable",
      "type": "function"
    },
    {
      "inputs": [],
      "name": "initialized",
      "outputs": [
        {
          "internalType": "bool",
          "name": "",
          "type": "bool"
        }
      ],
      "stateMutability": "view",
      "type": "function"
    },
    {
      "inputs": [
        {
          "internalType": "address",
          "name": "account",
          "type": "address"
        }
      ],
      "name": "isWhitelistAdmin",
      "outputs": [
        {
          "internalType": "bool",
          "name": "",
          "type": "bool"
        }
      ],
      "stateMutability": "view",
      "type": "function"
    },
    {
      "inputs": [
        {
          "internalType": "address",
          "name": "account",
          "type": "address"
        }
      ],
      "name": "isWhitelisted",
      "outputs": [
        {
          "internalType": "bool",
          "name": "",
          "type": "bool"
        }
      ],
      "stateMutability": "view",
      "type": "function"
    },
    {
      "inputs": [],
      "name": "maxTime",
      "outputs": [
        {
          "internalType": "uint256",
          "name": "",
          "type": "uint256"
        }
      ],
      "stateMutability": "view",
      "type": "function"
    },
    {
      "inputs": [],
      "name": "name",
      "outputs": [
        {
          "internalType": "string",
          "name": "",
          "type": "string"
        }
      ],
      "stateMutability": "view",
      "type": "function"
    },
    {
      "inputs": [
        {
          "internalType": "address",
          "name": "account",
          "type": "address"
        }
      ],
      "name": "removeWhitelisted",
      "outputs": [],
      "stateMutability": "nonpayable",
      "type": "function"
    },
    {
      "inputs": [],
      "name": "renounceWhitelistAdmin",
      "outputs": [],
      "stateMutability": "nonpayable",
      "type": "function"
    },
    {
      "inputs": [],
      "name": "renounceWhitelisted",
      "outputs": [],
      "stateMutability": "nonpayable",
      "type": "function"
    },
    {
      "inputs": [],
      "name": "symbol",
      "outputs": [
        {
          "internalType": "string",
          "name": "",
          "type": "string"
        }
      ],
      "stateMutability": "view",
      "type": "function"
    },
    {
      "inputs": [],
      "name": "totalSupply",
      "outputs": [
        {
          "internalType": "uint256",
          "name": "result",
          "type": "uint256"
        }
      ],
      "stateMutability": "view",
      "type": "function"
    },
    {
      "inputs": [
        {
          "internalType": "uint256",
          "name": "_timestamp",
          "type": "uint256"
        }
      ],
      "name": "totalSupplyAtTimestamp",
      "outputs": [
        {
          "internalType": "uint256",
          "name": "",
          "type": "uint256"
        }
      ],
      "stateMutability": "view",
      "type": "function"
    },
    {
      "inputs": [
        {
          "internalType": "uint256",
          "name": "",
          "type": "uint256"
        }
      ],
      "name": "unlockSchedule",
      "outputs": [
        {
          "internalType": "uint256",
          "name": "",
          "type": "uint256"
        }
      ],
      "stateMutability": "view",
      "type": "function"
    },
    {
      "inputs": [
        {
          "internalType": "address",
          "name": "",
          "type": "address"
        }
      ],
      "name": "userInfo",
      "outputs": [
        {
          "internalType": "uint256",
          "name": "amount",
          "type": "uint256"
        },
        {
          "internalType": "uint256",
          "name": "unlockTime",
          "type": "uint256"
        }
      ],
      "stateMutability": "view",
      "type": "function"
    },
    {
      "inputs": [],
      "name": "withdraw",
      "outputs": [],
      "stateMutability": "nonpayable",
      "type": "function"
    }
  ],
  "bytecode": "0x60806040526000805460ff191690553480156200001b57600080fd5b5062000027336200002d565b62000188565b620000488160016200007f60201b620012681790919060201c565b6040516001600160a01b038216907f22380c05984257a1cb900161c713dd71d39e74820f1aea43bd3f1bdd2096129990600090a250565b6200008b828262000103565b15620000de5760405162461bcd60e51b815260206004820152601f60248201527f526f6c65733a206163636f756e7420616c72656164792068617320726f6c650060448201526064015b60405180910390fd5b6001600160a01b0316600090815260209190915260409020805460ff19166001179055565b60006001600160a01b038216620001685760405162461bcd60e51b815260206004820152602260248201527f526f6c65733a206163636f756e7420697320746865207a65726f206164647265604482015261737360f01b6064820152608401620000d5565b506001600160a01b03166000908152602091909152604090205460ff1690565b611ed180620001986000396000f3fe608060405234801561001057600080fd5b50600436106101a35760003560e01c80634f2ba10c116100ee578063a5f065c211610097578063c2c4c5c111610071578063c2c4c5c114610364578063d6cd94731461036c578063de7ea79d14610374578063edbbadbd14610387576101a3565b8063a5f065c21461032b578063b52c05fe1461033e578063bb5f747b14610351576101a3565b80637c616fe6116100c85780637c616fe6146102fd5780638f3e37a11461031057806395d89b4114610323576101a3565b80634f2ba10c146102c457806370a08231146102d75780637362d9c8146102ea576101a3565b806322e67e71116101505780633af32abf1161012a5780633af32abf146102a15780633ccfd60b146102b45780634c5a628c146102bc576101a3565b806322e67e7114610266578063291d95491461026f578063313ce56714610282576101a3565b8063158ef93e11610181578063158ef93e1461020557806318160ddd146102225780631959a0021461022a576101a3565b806302ef4afc146101a857806306fdde03146101db57806310154bad146101f0575b600080fd5b6101c86101b6366004611d12565b600e6020526000908152604090205481565b6040519081526020015b60405180910390f35b6101e36103a7565b6040516101d29190611d67565b6102036101fe366004611c26565b610435565b005b6003546102129060ff1681565b60405190151581526020016101d2565b6101c86104c3565b610251610238366004611c26565b600c602052600090815260409020805460019091015482565b604080519283526020830191909152016101d2565b6101c8600b5481565b61020361027d366004611c26565b6105e4565b60065461028f9060ff1681565b60405160ff90911681526020016101d2565b6102126102af366004611c26565b61066a565b61020361067f565b6102036107fa565b6101c86102d2366004611c40565b610805565b6101c86102e5366004611c26565b61081a565b6102036102f8366004611c26565b610826565b61020361030b366004611d12565b6108ac565b61020361031e366004611c40565b610b70565b6101e3610dc2565b6101c8610339366004611d12565b610dcf565b61020361034c366004611d2a565b610dda565b61021261035f366004611c26565b611112565b61020361111f565b61020361112d565b610203610382366004611c89565b611136565b6101c8610395366004611d12565b600d6020526000908152604090205481565b600480546103b490611e34565b80601f01602080910402602001604051908101604052809291908181526020018280546103e090611e34565b801561042d5780601f106104025761010080835404028352916020019161042d565b820191906000526020600020905b81548152906001019060200180831161041057829003601f168201915b505050505081565b61043e3361035f565b6104b7576040805162461bcd60e51b81526020600482015260248101919091527f57686974656c69737441646d696e526f6c653a2063616c6c657220646f65732060448201527f6e6f742068617665207468652057686974656c69737441646d696e20726f6c6560648201526084015b60405180910390fd5b6104c0816112e4565b50565b600754600090816104d342611326565b60085460095491925090828410156105a1576104f262093a8085611d9a565b93505b82841015610553576000848152600e60205260409020546105169083611df1565b600b549092506105298362093a80611dd2565b6105339190611db2565b61053d9082611df1565b905061054c62093a8085611d9a565b93506104f5565b6000838152600e602052604090205461056c9083611df1565b600b5490925061057c8442611df1565b6105869084611dd2565b6105909190611db2565b61059a9082611df1565b94506105dd565b600b54426105b28562093a80611d9a565b6105bc9190611df1565b6105c69084611dd2565b6105d09190611db2565b6105da9082611d9a565b94505b5050505090565b6105ed3361035f565b610661576040805162461bcd60e51b81526020600482015260248101919091527f57686974656c69737441646d696e526f6c653a2063616c6c657220646f65732060448201527f6e6f742068617665207468652057686974656c69737441646d696e20726f6c6560648201526084016104ae565b6104c081611342565b6000610677600283611384565b90505b919050565b60005460ff16156106c75760405162461bcd60e51b8152602060048201526012602482015271149151539514905390d657d253131151d05360721b60448201526064016104ae565b6000805460ff191660019081178255338252600c6020908152604092839020835180850190945280548452909101549082018190524210156107715760405162461bcd60e51b815260206004820152602560248201527f566f74696e67457363726f773a20546865206c6f636b206973206e6f7420657860448201527f706972656400000000000000000000000000000000000000000000000000000060648201526084016104ae565b80516000602080840182815282855233808452600c9092526040909220845181559151600190920191909155600a546107b6916001600160a01b039091169083611422565b60405181815233907f7084f5476618d8e60b11ef0d7d3f06914655adb8793e28ff7f018d4c76d505d5906020015b60405180910390a250506000805460ff19169055565b610803336114d0565b565b60006108118383611512565b90505b92915050565b60006106778242611512565b61082f3361035f565b6108a3576040805162461bcd60e51b81526020600482015260248101919091527f57686974656c69737441646d696e526f6c653a2063616c6c657220646f65732060448201527f6e6f742068617665207468652057686974656c69737441646d696e20726f6c6560648201526084016104ae565b6104c0816115fe565b60005460ff16156108f45760405162461bcd60e51b8152602060048201526012602482015271149151539514905390d657d253131151d05360721b60448201526064016104ae565b6000805460ff1916600117905561090a81611326565b336000908152600c602052604090208054919250906109775760405162461bcd60e51b8152602060048201526024808201527f566f74696e67457363726f773a204e6f206578697374696e67206c6f636b20666044820152631bdd5b9960e21b60648201526084016104ae565b428160010154116109ca5760405162461bcd60e51b815260206004820152601a60248201527f566f74696e67457363726f773a204c6f636b206578706972656400000000000060448201526064016104ae565b80600101548211610a435760405162461bcd60e51b815260206004820152602d60248201527f566f74696e67457363726f773a2043616e206f6e6c7920696e6372656173652060448201527f6c6f636b206475726174696f6e0000000000000000000000000000000000000060648201526084016104ae565b600b54610a509042611d9a565b821115610ac55760405162461bcd60e51b815260206004820152603560248201527f566f74696e67457363726f773a20566f74696e67206c6f636b2063616e6e6f7460448201527f20657863656564206d6178206c6f636b2074696d65000000000000000000000060648201526084016104ae565b80546001820154610ada919084908290611640565b805460018201546000908152600e6020526040902054610afa9190611df1565b60018201546000908152600e602052604080822092909255825484825291902054610b259190611d9a565b6000838152600e602090815260409182902092909255600183018490555183815233917ff0b754f2925666b6f5b25e763f36d2663a4f335930adaf3b74155edd83a43d2b91016107e4565b60005460ff1615610bb85760405162461bcd60e51b8152602060048201526012602482015271149151539514905390d657d253131151d05360721b60448201526064016104ae565b6000805460ff191660011781556001600160a01b0383168152600c6020526040902081610c275760405162461bcd60e51b815260206004820152601c60248201527f566f74696e67457363726f773a20616d6f756e74206973207a65726f0000000060448201526064016104ae565b8054610c815760405162461bcd60e51b8152602060048201526024808201527f566f74696e67457363726f773a204e6f206578697374696e67206c6f636b20666044820152631bdd5b9960e21b60648201526084016104ae565b42816001015411610cfa5760405162461bcd60e51b815260206004820152602860248201527f566f74696e67457363726f773a2043616e6e6f742061646420746f206578706960448201527f726564206c6f636b00000000000000000000000000000000000000000000000060648201526084016104ae565b8054600090610d0a908490611d9a565b60018301548354919250610d219183919081611640565b60018201546000908152600e6020526040902054610d40908490611d9a565b60018301546000908152600e6020526040902055808255600a54610d6f906001600160a01b031633308661179e565b836001600160a01b03167f65a5228cb1adc70f49763ea95833de6547aff25acb2e7b198088f3097b23c25484604051610daa91815260200190565b60405180910390a250506000805460ff191690555050565b600580546103b490611e34565b6000610677826117f5565b60005460ff1615610e225760405162461bcd60e51b8152602060048201526012602482015271149151539514905390d657d253131151d05360721b60448201526064016104ae565b6000805460ff1916600117905533321480610e415750610e413361066a565b610eb35760405162461bcd60e51b815260206004820152603160248201527f566f74696e67457363726f773a2073656e64657220697320636f6e747261637460448201527f206e6f7420696e2077686974656c69737400000000000000000000000000000060648201526084016104ae565b60008211610f035760405162461bcd60e51b815260206004820152601c60248201527f566f74696e67457363726f773a20616d6f756e74206973207a65726f0000000060448201526064016104ae565b610f0c81611326565b336000908152600c6020526040902080549192509015610f945760405162461bcd60e51b815260206004820152602760248201527f566f74696e67457363726f773a207769746864726177206f6c6420746f6b656e60448201527f732066697273740000000000000000000000000000000000000000000000000060648201526084016104ae565b4282116110095760405162461bcd60e51b815260206004820152602d60248201527f566f74696e67457363726f773a20756e6c6f636b2074696d65203c206375727260448201527f656e742074696d657374616d700000000000000000000000000000000000000060648201526084016104ae565b600b546110169042611d9a565b82111561106f5760405162461bcd60e51b815260206004820152602160248201527f566f74696e67457363726f773a20657863656564206d61786c6f636b2074696d6044820152606560f81b60648201526084016104ae565b611083838383600001548460010154611640565b6000828152600e6020526040812080548592906110a1908490611d9a565b909155505060018101829055828155600a546110c8906001600160a01b031633308661179e565b604080518481526020810184905233917f167357c41e38a45e1950f61b1f5accf902c878d83f1685f7f72fb666203ce047910160405180910390a250506000805460ff1916905550565b6000610677600183611384565b610803600080600080611640565b61080333611342565b60035460ff16156111af5760405162461bcd60e51b815260206004820152602360248201527f4e656564496e697469616c697a653a20616c726561647920696e697469616c6960448201527f7a6564000000000000000000000000000000000000000000000000000000000060648201526084016104ae565b83516111c2906004906020870190611aef565b5082516111d6906005906020860190611aef565b506006805460ff191660ff8416179055600a80546001600160a01b03811673ffffffffffffffffffffffffffffffffffffffff1990911617905561121942611326565b600755630784ce00600b55600a805473ffffffffffffffffffffffffffffffffffffffff19166001600160a01b038316179055611255336115fe565b50506003805460ff191660011790555050565b6112728282611384565b156112bf5760405162461bcd60e51b815260206004820152601f60248201527f526f6c65733a206163636f756e7420616c72656164792068617320726f6c650060448201526064016104ae565b6001600160a01b0316600090815260209190915260409020805460ff19166001179055565b6112ef600282611268565b6040516001600160a01b038216907fee1504a83b6d4a361f4c1dc78ab59bfa30d6a3b6612c403e86bb01ef2984295f90600090a250565b600061133562093a8083611db2565b6106779062093a80611dd2565b61134d60028261187d565b6040516001600160a01b038216907f270d9b30cf5b0793bbfd54c9d5b94aeb49462b8148399000265144a8722da6b690600090a250565b60006001600160a01b0382166114025760405162461bcd60e51b815260206004820152602260248201527f526f6c65733a206163636f756e7420697320746865207a65726f20616464726560448201527f737300000000000000000000000000000000000000000000000000000000000060648201526084016104ae565b506001600160a01b03166000908152602091909152604090205460ff1690565b6040516001600160a01b0383166024820152604481018290526114cb9084907fa9059cbb00000000000000000000000000000000000000000000000000000000906064015b60408051601f198184030181529190526020810180517bffffffffffffffffffffffffffffffffffffffffffffffffffffffff167fffffffff00000000000000000000000000000000000000000000000000000000909316929092179091526118ff565b505050565b6114db60018261187d565b6040516001600160a01b038216907f0a8eb35e5ca14b3d6f28e4abf2f128dbab231a58b56e89beb5d636115001e16590600090a250565b60004282101561158a5760405162461bcd60e51b815260206004820152602c60248201527f566f74696e67457363726f773a204d7573742062652063757272656e74206f7260448201527f206675747572652074696d65000000000000000000000000000000000000000060648201526084016104ae565b6001600160a01b0383166000908152600c6020908152604091829020825180840190935280548352600101549082018190528311156115cd576000915050610814565b600b548382602001516115e09190611df1565b82516115ec9190611dd2565b6115f69190611db2565b949350505050565b611609600182611268565b6040516001600160a01b038216907f22380c05984257a1cb900161c713dd71d39e74820f1aea43bd3f1bdd2096129990600090a250565b600754600061164e42611326565b60085460095491925090828410156116e05761166d62093a8085611d9a565b93505b8284116116da576000848152600d60209081526040808320849055600e90915290205461169d9083611df1565b600b549092506116b08362093a80611dd2565b6116ba9190611db2565b6116c49082611df1565b90506116d362093a8085611d9a565b9350611670565b60078390555b60006116ef8462093a80611d9a565b90506000871180156117015750808610155b15611741576117108784611df1565b600b549093506117208288611df1565b61172a9089611dd2565b6117349190611db2565b61173e9083611df1565b91505b61174b8984611d9a565b600855600b5460018161175e848c611df1565b611768908d611dd2565b6117729190611d9a565b61177c9190611df1565b6117869190611db2565b6117909083611d9a565b600955505050505050505050565b6040516001600160a01b03808516602483015283166044820152606481018290526117ef9085907f23b872dd0000000000000000000000000000000000000000000000000000000090608401611467565b50505050565b60008061180183611326565b61180e9062093a80611d9a565b905060005b600b546118209085611d9a565b821161187657600b546118338584611df1565b6000848152600e602052604090205461184c9190611dd2565b6118569190611db2565b6118609082611d9a565b905061186f62093a8083611d9a565b9150611813565b9392505050565b6118878282611384565b6118dd5760405162461bcd60e51b815260206004820152602160248201527f526f6c65733a206163636f756e7420646f6573206e6f74206861766520726f6c6044820152606560f81b60648201526084016104ae565b6001600160a01b0316600090815260209190915260409020805460ff19169055565b6000611954826040518060400160405280602081526020017f5361666545524332303a206c6f772d6c6576656c2063616c6c206661696c6564815250856001600160a01b03166119e49092919063ffffffff16565b8051909150156114cb57808060200190518101906119729190611c69565b6114cb5760405162461bcd60e51b815260206004820152602a60248201527f5361666545524332303a204552433230206f7065726174696f6e20646964206e60448201527f6f7420737563636565640000000000000000000000000000000000000000000060648201526084016104ae565b60606115f6848460008585843b611a3d5760405162461bcd60e51b815260206004820152601d60248201527f416464726573733a2063616c6c20746f206e6f6e2d636f6e747261637400000060448201526064016104ae565b600080866001600160a01b03168587604051611a599190611d4b565b60006040518083038185875af1925050503d8060008114611a96576040519150601f19603f3d011682016040523d82523d6000602084013e611a9b565b606091505b5091509150611aab828286611ab6565b979650505050505050565b60608315611ac5575081611876565b825115611ad55782518084602001fd5b8160405162461bcd60e51b81526004016104ae9190611d67565b828054611afb90611e34565b90600052602060002090601f016020900481019282611b1d5760008555611b63565b82601f10611b3657805160ff1916838001178555611b63565b82800160010185558215611b63579182015b82811115611b63578251825591602001919060010190611b48565b50611b6f929150611b73565b5090565b5b80821115611b6f5760008155600101611b74565b80356001600160a01b038116811461067a57600080fd5b600082601f830112611baf578081fd5b813567ffffffffffffffff80821115611bca57611bca611e85565b604051601f8301601f19908116603f01168101908282118183101715611bf257611bf2611e85565b81604052838152866020858801011115611c0a578485fd5b8360208701602083013792830160200193909352509392505050565b600060208284031215611c37578081fd5b61081182611b88565b60008060408385031215611c52578081fd5b611c5b83611b88565b946020939093013593505050565b600060208284031215611c7a578081fd5b81518015158114611876578182fd5b60008060008060808587031215611c9e578182fd5b843567ffffffffffffffff80821115611cb5578384fd5b611cc188838901611b9f565b95506020870135915080821115611cd6578384fd5b50611ce387828801611b9f565b935050604085013560ff81168114611cf9578283fd5b9150611d0760608601611b88565b905092959194509250565b600060208284031215611d23578081fd5b5035919050565b60008060408385031215611d3c578182fd5b50508035926020909101359150565b60008251611d5d818460208701611e08565b9190910192915050565b6000602082528251806020840152611d86816040850160208701611e08565b601f01601f19169190910160400192915050565b60008219821115611dad57611dad611e6f565b500190565b600082611dcd57634e487b7160e01b81526012600452602481fd5b500490565b6000816000190483118215151615611dec57611dec611e6f565b500290565b600082821015611e0357611e03611e6f565b500390565b60005b83811015611e23578181015183820152602001611e0b565b838111156117ef5750506000910152565b600281046001821680611e4857607f821691505b60208210811415611e6957634e487b7160e01b600052602260045260246000fd5b50919050565b634e487b7160e01b600052601160045260246000fd5b634e487b7160e01b600052604160045260246000fdfea2646970667358221220da723548e2df7c951000908d7a0136eb8d4b4af891e799f2a5dd9bf4c57f50aa64736f6c63430008020033",
  "linkReferences": {},
  "deployedLinkReferences": {}
}