{
  "_format": "hh-sol-artifact-1",
  "contractName": "SwappiNFT",
  "sourceName": "contracts/SwappiNFT.sol",
  "abi": [
    {
      "inputs": [
        {
          "internalType": "string",
          "name": "name",
          "type": "string"
        },
        {
          "internalType": "string",
          "name": "symbol",
          "type": "string"
        },
        {
          "internalType": "uint256",
          "name": "totalSupply",
          "type": "uint256"
        },
        {
          "internalType": "string",
          "name": "tokenBaseURI",
          "type": "string"
        },
        {
          "internalType": "address",
          "name": "token",
          "type": "address"
        },
        {
          "internalType": "address",
          "name": "tokenReceiver",
          "type": "address"
        },
        {
          "internalType": "uint256",
          "name": "NFTPrice",
          "type": "uint256"
        }
      ],
      "stateMutability": "nonpayable",
      "type": "constructor"
    },
    {
      "anonymous": false,
      "inputs": [
        {
          "indexed": true,
          "internalType": "address",
          "name": "owner",
          "type": "address"
        },
        {
          "indexed": true,
          "internalType": "address",
          "name": "approved",
          "type": "address"
        },
        {
          "indexed": true,
          "internalType": "uint256",
          "name": "tokenId",
          "type": "uint256"
        }
      ],
      "name": "Approval",
      "type": "event"
    },
    {
      "anonymous": false,
      "inputs": [
        {
          "indexed": true,
          "internalType": "address",
          "name": "owner",
          "type": "address"
        },
        {
          "indexed": true,
          "internalType": "address",
          "name": "operator",
          "type": "address"
        },
        {
          "indexed": false,
          "internalType": "bool",
          "name": "approved",
          "type": "bool"
        }
      ],
      "name": "ApprovalForAll",
      "type": "event"
    },
    {
      "anonymous": false,
      "inputs": [
        {
          "indexed": true,
          "internalType": "address",
          "name": "from",
          "type": "address"
        },
        {
          "indexed": true,
          "internalType": "address",
          "name": "to",
          "type": "address"
        },
        {
          "indexed": true,
          "internalType": "uint256",
          "name": "tokenId",
          "type": "uint256"
        }
      ],
      "name": "Transfer",
      "type": "event"
    },
    {
      "inputs": [],
      "name": "_NFTPrice",
      "outputs": [
        {
          "internalType": "uint256",
          "name": "",
          "type": "uint256"
        }
      ],
      "stateMutability": "view",
      "type": "function"
    },
    {
      "inputs": [],
      "name": "_contractOwner",
      "outputs": [
        {
          "internalType": "address",
          "name": "",
          "type": "address"
        }
      ],
      "stateMutability": "view",
      "type": "function"
    },
    {
      "inputs": [],
      "name": "_mintEnabled",
      "outputs": [
        {
          "internalType": "bool",
          "name": "",
          "type": "bool"
        }
      ],
      "stateMutability": "view",
      "type": "function"
    },
    {
      "inputs": [],
      "name": "_token",
      "outputs": [
        {
          "internalType": "address",
          "name": "",
          "type": "address"
        }
      ],
      "stateMutability": "view",
      "type": "function"
    },
    {
      "inputs": [],
      "name": "_tokenBaseURI",
      "outputs": [
        {
          "internalType": "string",
          "name": "",
          "type": "string"
        }
      ],
      "stateMutability": "view",
      "type": "function"
    },
    {
      "inputs": [],
      "name": "_tokenCounter",
      "outputs": [
        {
          "internalType": "uint256",
          "name": "",
          "type": "uint256"
        }
      ],
      "stateMutability": "view",
      "type": "function"
    },
    {
      "inputs": [],
      "name": "_tokenReceiver",
      "outputs": [
        {
          "internalType": "address",
          "name": "",
          "type": "address"
        }
      ],
      "stateMutability": "view",
      "type": "function"
    },
    {
      "inputs": [],
      "name": "_totalSupply",
      "outputs": [
        {
          "internalType": "uint256",
          "name": "",
          "type": "uint256"
        }
      ],
      "stateMutability": "view",
      "type": "function"
    },
    {
      "inputs": [
        {
          "internalType": "address",
          "name": "to",
          "type": "address"
        },
        {
          "internalType": "uint256",
          "name": "tokenId",
          "type": "uint256"
        }
      ],
      "name": "approve",
      "outputs": [],
      "stateMutability": "nonpayable",
      "type": "function"
    },
    {
      "inputs": [
        {
          "internalType": "address",
          "name": "owner",
          "type": "address"
        }
      ],
      "name": "balanceOf",
      "outputs": [
        {
          "internalType": "uint256",
          "name": "",
          "type": "uint256"
        }
      ],
      "stateMutability": "view",
      "type": "function"
    },
    {
      "inputs": [],
      "name": "disableMint",
      "outputs": [],
      "stateMutability": "nonpayable",
      "type": "function"
    },
    {
      "inputs": [],
      "name": "enableMint",
      "outputs": [],
      "stateMutability": "nonpayable",
      "type": "function"
    },
    {
      "inputs": [
        {
          "internalType": "uint256",
          "name": "tokenId",
          "type": "uint256"
        }
      ],
      "name": "getApproved",
      "outputs": [
        {
          "internalType": "address",
          "name": "",
          "type": "address"
        }
      ],
      "stateMutability": "view",
      "type": "function"
    },
    {
      "inputs": [
        {
          "internalType": "address",
          "name": "addr",
          "type": "address"
        }
      ],
      "name": "hasMinted",
      "outputs": [
        {
          "internalType": "bool",
          "name": "",
          "type": "bool"
        }
      ],
      "stateMutability": "view",
      "type": "function"
    },
    {
      "inputs": [
        {
          "internalType": "address",
          "name": "owner",
          "type": "address"
        },
        {
          "internalType": "address",
          "name": "operator",
          "type": "address"
        }
      ],
      "name": "isApprovedForAll",
      "outputs": [
        {
          "internalType": "bool",
          "name": "",
          "type": "bool"
        }
      ],
      "stateMutability": "view",
      "type": "function"
    },
    {
      "inputs": [],
      "name": "mint",
      "outputs": [],
      "stateMutability": "nonpayable",
      "type": "function"
    },
    {
      "inputs": [],
      "name": "name",
      "outputs": [
        {
          "internalType": "string",
          "name": "",
          "type": "string"
        }
      ],
      "stateMutability": "view",
      "type": "function"
    },
    {
      "inputs": [
        {
          "internalType": "uint256",
          "name": "tokenId",
          "type": "uint256"
        }
      ],
      "name": "ownerOf",
      "outputs": [
        {
          "internalType": "address",
          "name": "",
          "type": "address"
        }
      ],
      "stateMutability": "view",
      "type": "function"
    },
    {
      "inputs": [
        {
          "internalType": "address",
          "name": "from",
          "type": "address"
        },
        {
          "internalType": "address",
          "name": "to",
          "type": "address"
        },
        {
          "internalType": "uint256",
          "name": "tokenId",
          "type": "uint256"
        }
      ],
      "name": "safeTransferFrom",
      "outputs": [],
      "stateMutability": "nonpayable",
      "type": "function"
    },
    {
      "inputs": [
        {
          "internalType": "address",
          "name": "from",
          "type": "address"
        },
        {
          "internalType": "address",
          "name": "to",
          "type": "address"
        },
        {
          "internalType": "uint256",
          "name": "tokenId",
          "type": "uint256"
        },
        {
          "internalType": "bytes",
          "name": "_data",
          "type": "bytes"
        }
      ],
      "name": "safeTransferFrom",
      "outputs": [],
      "stateMutability": "nonpayable",
      "type": "function"
    },
    {
      "inputs": [
        {
          "internalType": "address",
          "name": "operator",
          "type": "address"
        },
        {
          "internalType": "bool",
          "name": "approved",
          "type": "bool"
        }
      ],
      "name": "setApprovalForAll",
      "outputs": [],
      "stateMutability": "nonpayable",
      "type": "function"
    },
    {
      "inputs": [
        {
          "internalType": "address",
          "name": "newContractOwner",
          "type": "address"
        }
      ],
      "name": "setContractOwner",
      "outputs": [],
      "stateMutability": "nonpayable",
      "type": "function"
    },
    {
      "inputs": [
        {
          "internalType": "uint256",
          "name": "NFTPrice",
          "type": "uint256"
        }
      ],
      "name": "setNFTPrice",
      "outputs": [],
      "stateMutability": "nonpayable",
      "type": "function"
    },
    {
      "inputs": [
        {
          "internalType": "address",
          "name": "addr",
          "type": "address"
        }
      ],
      "name": "setToken",
      "outputs": [],
      "stateMutability": "nonpayable",
      "type": "function"
    },
    {
      "inputs": [
        {
          "internalType": "string",
          "name": "tokenBaseURI",
          "type": "string"
        }
      ],
      "name": "setTokenBaseURI",
      "outputs": [],
      "stateMutability": "nonpayable",
      "type": "function"
    },
    {
      "inputs": [
        {
          "internalType": "address",
          "name": "addr",
          "type": "address"
        }
      ],
      "name": "setTokenReceiver",
      "outputs": [],
      "stateMutability": "nonpayable",
      "type": "function"
    },
    {
      "inputs": [
        {
          "internalType": "uint256",
          "name": "totalSupply",
          "type": "uint256"
        }
      ],
      "name": "setTotalSupply",
      "outputs": [],
      "stateMutability": "nonpayable",
      "type": "function"
    },
    {
      "inputs": [
        {
          "internalType": "bytes4",
          "name": "interfaceId",
          "type": "bytes4"
        }
      ],
      "name": "supportsInterface",
      "outputs": [
        {
          "internalType": "bool",
          "name": "",
          "type": "bool"
        }
      ],
      "stateMutability": "view",
      "type": "function"
    },
    {
      "inputs": [],
      "name": "symbol",
      "outputs": [
        {
          "internalType": "string",
          "name": "",
          "type": "string"
        }
      ],
      "stateMutability": "view",
      "type": "function"
    },
    {
      "inputs": [
        {
          "internalType": "uint256",
          "name": "tokenId",
          "type": "uint256"
        }
      ],
      "name": "tokenURI",
      "outputs": [
        {
          "internalType": "string",
          "name": "",
          "type": "string"
        }
      ],
      "stateMutability": "view",
      "type": "function"
    },
    {
      "inputs": [
        {
          "internalType": "address",
          "name": "from",
          "type": "address"
        },
        {
          "internalType": "address",
          "name": "to",
          "type": "address"
        },
        {
          "internalType": "uint256",
          "name": "tokenId",
          "type": "uint256"
        }
      ],
      "name": "transferFrom",
      "outputs": [],
      "stateMutability": "nonpayable",
      "type": "function"
    }
  ],
  "bytecode": "0x60806040523480156200001157600080fd5b50604051620044d6380380620044d68339818101604052810190620000379190620003bd565b86868160009080519060200190620000519291906200026d565b5080600190805190602001906200006a9291906200026d565b505050600073ffffffffffffffffffffffffffffffffffffffff168373ffffffffffffffffffffffffffffffffffffffff161415620000e0576040517f08c379a0000000000000000000000000000000000000000000000000000000008152600401620000d79062000525565b60405180910390fd5b600073ffffffffffffffffffffffffffffffffffffffff168273ffffffffffffffffffffffffffffffffffffffff16141562000153576040517f08c379a00000000000000000000000000000000000000000000000000000000081526004016200014a9062000503565b60405180910390fd5b60006006819055508460078190555033600860006101000a81548173ffffffffffffffffffffffffffffffffffffffff021916908373ffffffffffffffffffffffffffffffffffffffff1602179055508360099080519060200190620001bb9291906200026d565b506000600a60006101000a81548160ff02191690831515021790555082600a60016101000a81548173ffffffffffffffffffffffffffffffffffffffff021916908373ffffffffffffffffffffffffffffffffffffffff16021790555081600b60006101000a81548173ffffffffffffffffffffffffffffffffffffffff021916908373ffffffffffffffffffffffffffffffffffffffff16021790555080600c8190555050505050505050620007b2565b8280546200027b906200062b565b90600052602060002090601f0160209004810192826200029f5760008555620002eb565b82601f10620002ba57805160ff1916838001178555620002eb565b82800160010185558215620002eb579182015b82811115620002ea578251825591602001919060010190620002cd565b5b509050620002fa9190620002fe565b5090565b5b8082111562000319576000816000905550600101620002ff565b5090565b6000620003346200032e8462000570565b62000547565b9050828152602081018484840111156200034d57600080fd5b6200035a848285620005f5565b509392505050565b60008151905062000373816200077e565b92915050565b600082601f8301126200038b57600080fd5b81516200039d8482602086016200031d565b91505092915050565b600081519050620003b78162000798565b92915050565b600080600080600080600060e0888a031215620003d957600080fd5b600088015167ffffffffffffffff811115620003f457600080fd5b620004028a828b0162000379565b975050602088015167ffffffffffffffff8111156200042057600080fd5b6200042e8a828b0162000379565b9650506040620004418a828b01620003a6565b955050606088015167ffffffffffffffff8111156200045f57600080fd5b6200046d8a828b0162000379565b9450506080620004808a828b0162000362565b93505060a0620004938a828b0162000362565b92505060c0620004a68a828b01620003a6565b91505092959891949750929550565b6000620004c4602783620005a6565b9150620004d18262000706565b604082019050919050565b6000620004eb602083620005a6565b9150620004f88262000755565b602082019050919050565b600060208201905081810360008301526200051e81620004b5565b9050919050565b600060208201905081810360008301526200054081620004dc565b9050919050565b60006200055362000566565b905062000561828262000661565b919050565b6000604051905090565b600067ffffffffffffffff8211156200058e576200058d620006c6565b5b6200059982620006f5565b9050602081019050919050565b600082825260208201905092915050565b6000620005c482620005cb565b9050919050565b600073ffffffffffffffffffffffffffffffffffffffff82169050919050565b6000819050919050565b60005b8381101562000615578082015181840152602081019050620005f8565b8381111562000625576000848401525b50505050565b600060028204905060018216806200064457607f821691505b602082108114156200065b576200065a62000697565b5b50919050565b6200066c82620006f5565b810181811067ffffffffffffffff821117156200068e576200068d620006c6565b5b80604052505050565b7f4e487b7100000000000000000000000000000000000000000000000000000000600052602260045260246000fd5b7f4e487b7100000000000000000000000000000000000000000000000000000000600052604160045260246000fd5b6000601f19601f8301169050919050565b7f5377617070694e46543a207472616e7366657220746f20746865207a65726f2060008201527f6164647265737300000000000000000000000000000000000000000000000000602082015250565b7f5377617070694e46543a20746f6b656e2061646472657373206973207a65726f600082015250565b6200078981620005b7565b81146200079557600080fd5b50565b620007a381620005eb565b8114620007af57600080fd5b50565b613d1480620007c26000396000f3fe608060405234801561001057600080fd5b50600436106101e55760003560e01c80636352211e1161010f578063b88d4fde116100a2578063e985e9c511610071578063e985e9c514610530578063e9d7f0d314610560578063ecd0c0c31461057e578063f7ea7a3d1461059c576101e5565b8063b88d4fde146104aa578063c87b56dd146104c6578063e891e9d1146104f6578063e8c667cb14610512576101e5565b80639230b2bc116100de5780639230b2bc1461043657806395d89b4114610454578063a22cb46514610472578063a34d42b81461048e576101e5565b80636352211e1461039e57806370a08231146103ce57806381530b68146103fe5780638ef79e911461041a576101e5565b806327a00499116101875780633ca4fb76116101565780633ca4fb761461033c5780633eaaf86b1461035a57806342842e0e1461037857806344b28d5914610394576101e5565b806327a00499146102c65780632bb3b114146102e457806334452f381461030257806338e21cce1461030c576101e5565b8063095ea7b3116101c3578063095ea7b3146102685780631249c58b14610284578063144fa6d71461028e57806323b872dd146102aa576101e5565b806301ffc9a7146101ea57806306fdde031461021a578063081812fc14610238575b600080fd5b61020460048036038101906101ff91906129c6565b6105b8565b6040516102119190612f78565b60405180910390f35b61022261069a565b60405161022f9190612f93565b60405180910390f35b610252600480360381019061024d9190612a59565b61072c565b60405161025f9190612eb1565b60405180910390f35b610282600480360381019061027d9190612961565b6107b1565b005b61028c6108c9565b005b6102a860048036038101906102a391906127f6565b610b5e565b005b6102c460048036038101906102bf919061285b565b610ca2565b005b6102ce610d02565b6040516102db91906132b5565b60405180910390f35b6102ec610d08565b6040516102f99190612eb1565b60405180910390f35b61030a610d2e565b005b610326600480360381019061032191906127f6565b610ddb565b6040516103339190612f78565b60405180910390f35b610344610e31565b6040516103519190612f93565b60405180910390f35b610362610ebf565b60405161036f91906132b5565b60405180910390f35b610392600480360381019061038d919061285b565b610ec5565b005b61039c610ee5565b005b6103b860048036038101906103b39190612a59565b610f92565b6040516103c59190612eb1565b60405180910390f35b6103e860048036038101906103e391906127f6565b611044565b6040516103f591906132b5565b60405180910390f35b61041860048036038101906104139190612a59565b6110fc565b005b610434600480360381019061042f9190612a18565b611196565b005b61043e611240565b60405161044b91906132b5565b60405180910390f35b61045c611246565b6040516104699190612f93565b60405180910390f35b61048c60048036038101906104879190612925565b6112d8565b005b6104a860048036038101906104a391906127f6565b6112ee565b005b6104c460048036038101906104bf91906128aa565b6113c2565b005b6104e060048036038101906104db9190612a59565b611424565b6040516104ed9190612f93565b60405180910390f35b610510600480360381019061050b91906127f6565b61147d565b005b61051a6115c1565b6040516105279190612eb1565b60405180910390f35b61054a6004803603810190610545919061281f565b6115e7565b6040516105579190612f78565b60405180910390f35b61056861167b565b6040516105759190612f78565b60405180910390f35b61058661168e565b6040516105939190612eb1565b60405180910390f35b6105b660048036038101906105b19190612a59565b6116b4565b005b60007f80ac58cd000000000000000000000000000000000000000000000000000000007bffffffffffffffffffffffffffffffffffffffffffffffffffffffff1916827bffffffffffffffffffffffffffffffffffffffffffffffffffffffff1916148061068357507f5b5e139f000000000000000000000000000000000000000000000000000000007bffffffffffffffffffffffffffffffffffffffffffffffffffffffff1916827bffffffffffffffffffffffffffffffffffffffffffffffffffffffff1916145b8061069357506106928261174e565b5b9050919050565b6060600080546106a9906134da565b80601f01602080910402602001604051908101604052809291908181526020018280546106d5906134da565b80156107225780601f106106f757610100808354040283529160200191610722565b820191906000526020600020905b81548152906001019060200180831161070557829003601f168201915b5050505050905090565b6000610737826117b8565b610776576040517f08c379a000000000000000000000000000000000000000000000000000000000815260040161076d906131d5565b60405180910390fd5b6004600083815260200190815260200160002060009054906101000a900473ffffffffffffffffffffffffffffffffffffffff169050919050565b60006107bc82610f92565b90508073ffffffffffffffffffffffffffffffffffffffff168373ffffffffffffffffffffffffffffffffffffffff16141561082d576040517f08c379a000000000000000000000000000000000000000000000000000000000815260040161082490613215565b60405180910390fd5b8073ffffffffffffffffffffffffffffffffffffffff1661084c611824565b73ffffffffffffffffffffffffffffffffffffffff16148061087b575061087a81610875611824565b6115e7565b5b6108ba576040517f08c379a00000000000000000000000000000000000000000000000000000000081526004016108b190613135565b60405180910390fd5b6108c4838361182c565b505050565b600a60009054906101000a900460ff16610918576040517f08c379a000000000000000000000000000000000000000000000000000000000815260040161090f90613195565b60405180910390fd5b6007546006541061095e576040517f08c379a000000000000000000000000000000000000000000000000000000000815260040161095590612fb5565b60405180910390fd5b60001515600d60003373ffffffffffffffffffffffffffffffffffffffff1673ffffffffffffffffffffffffffffffffffffffff16815260200190815260200160002060009054906101000a900460ff161515146109f1576040517f08c379a00000000000000000000000000000000000000000000000000000000081526004016109e890613015565b60405180910390fd5b3373ffffffffffffffffffffffffffffffffffffffff163273ffffffffffffffffffffffffffffffffffffffff1614610a5f576040517f08c379a0000000000000000000000000000000000000000000000000000000008152600401610a56906130d5565b60405180910390fd5b6001600d60003373ffffffffffffffffffffffffffffffffffffffff1673ffffffffffffffffffffffffffffffffffffffff16815260200190815260200160002060006101000a81548160ff021916908315150217905550610ae7600a60019054906101000a900473ffffffffffffffffffffffffffffffffffffffff163330600c546118e5565b610af33360065461196e565b610b44600a60019054906101000a900473ffffffffffffffffffffffffffffffffffffffff16600b60009054906101000a900473ffffffffffffffffffffffffffffffffffffffff16600c5461198c565b60066000815480929190610b579061353d565b9190505550565b600860009054906101000a900473ffffffffffffffffffffffffffffffffffffffff1673ffffffffffffffffffffffffffffffffffffffff163373ffffffffffffffffffffffffffffffffffffffff1614610bee576040517f08c379a0000000000000000000000000000000000000000000000000000000008152600401610be590613295565b60405180910390fd5b600073ffffffffffffffffffffffffffffffffffffffff168173ffffffffffffffffffffffffffffffffffffffff161415610c5e576040517f08c379a0000000000000000000000000000000000000000000000000000000008152600401610c55906131f5565b60405180910390fd5b80600a60016101000a81548173ffffffffffffffffffffffffffffffffffffffff021916908373ffffffffffffffffffffffffffffffffffffffff16021790555050565b610cb3610cad611824565b82611a12565b610cf2576040517f08c379a0000000000000000000000000000000000000000000000000000000008152600401610ce990613235565b60405180910390fd5b610cfd838383611af0565b505050565b600c5481565b600860009054906101000a900473ffffffffffffffffffffffffffffffffffffffff1681565b600860009054906101000a900473ffffffffffffffffffffffffffffffffffffffff1673ffffffffffffffffffffffffffffffffffffffff163373ffffffffffffffffffffffffffffffffffffffff1614610dbe576040517f08c379a0000000000000000000000000000000000000000000000000000000008152600401610db590613295565b60405180910390fd5b6000600a60006101000a81548160ff021916908315150217905550565b6000600d60008373ffffffffffffffffffffffffffffffffffffffff1673ffffffffffffffffffffffffffffffffffffffff16815260200190815260200160002060009054906101000a900460ff169050919050565b60098054610e3e906134da565b80601f0160208091040260200160405190810160405280929190818152602001828054610e6a906134da565b8015610eb75780601f10610e8c57610100808354040283529160200191610eb7565b820191906000526020600020905b815481529060010190602001808311610e9a57829003601f168201915b505050505081565b60075481565b610ee0838383604051806020016040528060008152506113c2565b505050565b600860009054906101000a900473ffffffffffffffffffffffffffffffffffffffff1673ffffffffffffffffffffffffffffffffffffffff163373ffffffffffffffffffffffffffffffffffffffff1614610f75576040517f08c379a0000000000000000000000000000000000000000000000000000000008152600401610f6c90613295565b60405180910390fd5b6001600a60006101000a81548160ff021916908315150217905550565b6000806002600084815260200190815260200160002060009054906101000a900473ffffffffffffffffffffffffffffffffffffffff169050600073ffffffffffffffffffffffffffffffffffffffff168173ffffffffffffffffffffffffffffffffffffffff16141561103b576040517f08c379a000000000000000000000000000000000000000000000000000000000815260040161103290613175565b60405180910390fd5b80915050919050565b60008073ffffffffffffffffffffffffffffffffffffffff168273ffffffffffffffffffffffffffffffffffffffff1614156110b5576040517f08c379a00000000000000000000000000000000000000000000000000000000081526004016110ac90613155565b60405180910390fd5b600360008373ffffffffffffffffffffffffffffffffffffffff1673ffffffffffffffffffffffffffffffffffffffff168152602001908152602001600020549050919050565b600860009054906101000a900473ffffffffffffffffffffffffffffffffffffffff1673ffffffffffffffffffffffffffffffffffffffff163373ffffffffffffffffffffffffffffffffffffffff161461118c576040517f08c379a000000000000000000000000000000000000000000000000000000000815260040161118390613295565b60405180910390fd5b80600c8190555050565b600860009054906101000a900473ffffffffffffffffffffffffffffffffffffffff1673ffffffffffffffffffffffffffffffffffffffff163373ffffffffffffffffffffffffffffffffffffffff1614611226576040517f08c379a000000000000000000000000000000000000000000000000000000000815260040161121d90613295565b60405180910390fd5b806009908051906020019061123c929190612605565b5050565b60065481565b606060018054611255906134da565b80601f0160208091040260200160405190810160405280929190818152602001828054611281906134da565b80156112ce5780601f106112a3576101008083540402835291602001916112ce565b820191906000526020600020905b8154815290600101906020018083116112b157829003601f168201915b5050505050905090565b6112ea6112e3611824565b8383611d57565b5050565b600860009054906101000a900473ffffffffffffffffffffffffffffffffffffffff1673ffffffffffffffffffffffffffffffffffffffff163373ffffffffffffffffffffffffffffffffffffffff161461137e576040517f08c379a000000000000000000000000000000000000000000000000000000000815260040161137590613295565b60405180910390fd5b80600860006101000a81548173ffffffffffffffffffffffffffffffffffffffff021916908373ffffffffffffffffffffffffffffffffffffffff16021790555050565b6113d36113cd611824565b83611a12565b611412576040517f08c379a000000000000000000000000000000000000000000000000000000000815260040161140990613235565b60405180910390fd5b61141e84848484611ec4565b50505050565b606061142f826117b8565b61146e576040517f08c379a000000000000000000000000000000000000000000000000000000000815260040161146590613075565b60405180910390fd5b611476611f20565b9050919050565b600860009054906101000a900473ffffffffffffffffffffffffffffffffffffffff1673ffffffffffffffffffffffffffffffffffffffff163373ffffffffffffffffffffffffffffffffffffffff161461150d576040517f08c379a000000000000000000000000000000000000000000000000000000000815260040161150490613295565b60405180910390fd5b600073ffffffffffffffffffffffffffffffffffffffff168173ffffffffffffffffffffffffffffffffffffffff16141561157d576040517f08c379a000000000000000000000000000000000000000000000000000000000815260040161157490612fd5565b60405180910390fd5b80600b60006101000a81548173ffffffffffffffffffffffffffffffffffffffff021916908373ffffffffffffffffffffffffffffffffffffffff16021790555050565b600b60009054906101000a900473ffffffffffffffffffffffffffffffffffffffff1681565b6000600560008473ffffffffffffffffffffffffffffffffffffffff1673ffffffffffffffffffffffffffffffffffffffff16815260200190815260200160002060008373ffffffffffffffffffffffffffffffffffffffff1673ffffffffffffffffffffffffffffffffffffffff16815260200190815260200160002060009054906101000a900460ff16905092915050565b600a60009054906101000a900460ff1681565b600a60019054906101000a900473ffffffffffffffffffffffffffffffffffffffff1681565b600860009054906101000a900473ffffffffffffffffffffffffffffffffffffffff1673ffffffffffffffffffffffffffffffffffffffff163373ffffffffffffffffffffffffffffffffffffffff1614611744576040517f08c379a000000000000000000000000000000000000000000000000000000000815260040161173b90613295565b60405180910390fd5b8060078190555050565b60007f01ffc9a7000000000000000000000000000000000000000000000000000000007bffffffffffffffffffffffffffffffffffffffffffffffffffffffff1916827bffffffffffffffffffffffffffffffffffffffffffffffffffffffff1916149050919050565b60008073ffffffffffffffffffffffffffffffffffffffff166002600084815260200190815260200160002060009054906101000a900473ffffffffffffffffffffffffffffffffffffffff1673ffffffffffffffffffffffffffffffffffffffff1614159050919050565b600033905090565b816004600083815260200190815260200160002060006101000a81548173ffffffffffffffffffffffffffffffffffffffff021916908373ffffffffffffffffffffffffffffffffffffffff160217905550808273ffffffffffffffffffffffffffffffffffffffff1661189f83610f92565b73ffffffffffffffffffffffffffffffffffffffff167f8c5be1e5ebec7d5bd14f71427d1e84f3dd0314c0f7b2291e5b200ac8c7c3b92560405160405180910390a45050565b611968846323b872dd60e01b85858560405160240161190693929190612ecc565b604051602081830303815290604052907bffffffffffffffffffffffffffffffffffffffffffffffffffffffff19166020820180517bffffffffffffffffffffffffffffffffffffffffffffffffffffffff8381831617835250505050611fb2565b50505050565b611988828260405180602001604052806000815250612079565b5050565b611a0d8363a9059cbb60e01b84846040516024016119ab929190612f4f565b604051602081830303815290604052907bffffffffffffffffffffffffffffffffffffffffffffffffffffffff19166020820180517bffffffffffffffffffffffffffffffffffffffffffffffffffffffff8381831617835250505050611fb2565b505050565b6000611a1d826117b8565b611a5c576040517f08c379a0000000000000000000000000000000000000000000000000000000008152600401611a5390613115565b60405180910390fd5b6000611a6783610f92565b90508073ffffffffffffffffffffffffffffffffffffffff168473ffffffffffffffffffffffffffffffffffffffff161480611aa95750611aa881856115e7565b5b80611ae757508373ffffffffffffffffffffffffffffffffffffffff16611acf8461072c565b73ffffffffffffffffffffffffffffffffffffffff16145b91505092915050565b8273ffffffffffffffffffffffffffffffffffffffff16611b1082610f92565b73ffffffffffffffffffffffffffffffffffffffff1614611b66576040517f08c379a0000000000000000000000000000000000000000000000000000000008152600401611b5d90613035565b60405180910390fd5b600073ffffffffffffffffffffffffffffffffffffffff168273ffffffffffffffffffffffffffffffffffffffff161415611bd6576040517f08c379a0000000000000000000000000000000000000000000000000000000008152600401611bcd90613095565b60405180910390fd5b611be18383836120d4565b611bec60008261182c565b6001600360008573ffffffffffffffffffffffffffffffffffffffff1673ffffffffffffffffffffffffffffffffffffffff1681526020019081526020016000206000828254611c3c91906133f0565b925050819055506001600360008473ffffffffffffffffffffffffffffffffffffffff1673ffffffffffffffffffffffffffffffffffffffff1681526020019081526020016000206000828254611c93919061339a565b92505081905550816002600083815260200190815260200160002060006101000a81548173ffffffffffffffffffffffffffffffffffffffff021916908373ffffffffffffffffffffffffffffffffffffffff160217905550808273ffffffffffffffffffffffffffffffffffffffff168473ffffffffffffffffffffffffffffffffffffffff167fddf252ad1be2c89b69c2b068fc378daa952ba7f163c4a11628f55a4df523b3ef60405160405180910390a4611d528383836120d9565b505050565b8173ffffffffffffffffffffffffffffffffffffffff168373ffffffffffffffffffffffffffffffffffffffff161415611dc6576040517f08c379a0000000000000000000000000000000000000000000000000000000008152600401611dbd906130b5565b60405180910390fd5b80600560008573ffffffffffffffffffffffffffffffffffffffff1673ffffffffffffffffffffffffffffffffffffffff16815260200190815260200160002060008473ffffffffffffffffffffffffffffffffffffffff1673ffffffffffffffffffffffffffffffffffffffff16815260200190815260200160002060006101000a81548160ff0219169083151502179055508173ffffffffffffffffffffffffffffffffffffffff168373ffffffffffffffffffffffffffffffffffffffff167f17307eab39ab6107e8899845ad3d59bd9653f200f220920489ca2b5937696c3183604051611eb79190612f78565b60405180910390a3505050565b611ecf848484611af0565b611edb848484846120de565b611f1a576040517f08c379a0000000000000000000000000000000000000000000000000000000008152600401611f1190612ff5565b60405180910390fd5b50505050565b606060098054611f2f906134da565b80601f0160208091040260200160405190810160405280929190818152602001828054611f5b906134da565b8015611fa85780601f10611f7d57610100808354040283529160200191611fa8565b820191906000526020600020905b815481529060010190602001808311611f8b57829003601f168201915b5050505050905090565b6000612014826040518060400160405280602081526020017f5361666545524332303a206c6f772d6c6576656c2063616c6c206661696c65648152508573ffffffffffffffffffffffffffffffffffffffff166122759092919063ffffffff16565b90506000815111156120745780806020019051810190612034919061299d565b612073576040517f08c379a000000000000000000000000000000000000000000000000000000000815260040161206a90613275565b60405180910390fd5b5b505050565b612083838361228d565b61209060008484846120de565b6120cf576040517f08c379a00000000000000000000000000000000000000000000000000000000081526004016120c690612ff5565b60405180910390fd5b505050565b505050565b505050565b60006120ff8473ffffffffffffffffffffffffffffffffffffffff16612467565b15612268578373ffffffffffffffffffffffffffffffffffffffff1663150b7a02612128611824565b8786866040518563ffffffff1660e01b815260040161214a9493929190612f03565b602060405180830381600087803b15801561216457600080fd5b505af192505050801561219557506040513d601f19601f8201168201806040525081019061219291906129ef565b60015b612218573d80600081146121c5576040519150601f19603f3d011682016040523d82523d6000602084013e6121ca565b606091505b50600081511415612210576040517f08c379a000000000000000000000000000000000000000000000000000000000815260040161220790612ff5565b60405180910390fd5b805181602001fd5b63150b7a0260e01b7bffffffffffffffffffffffffffffffffffffffffffffffffffffffff1916817bffffffffffffffffffffffffffffffffffffffffffffffffffffffff19161491505061226d565b600190505b949350505050565b6060612284848460008561248a565b90509392505050565b600073ffffffffffffffffffffffffffffffffffffffff168273ffffffffffffffffffffffffffffffffffffffff1614156122fd576040517f08c379a00000000000000000000000000000000000000000000000000000000081526004016122f4906131b5565b60405180910390fd5b612306816117b8565b15612346576040517f08c379a000000000000000000000000000000000000000000000000000000000815260040161233d90613055565b60405180910390fd5b612352600083836120d4565b6001600360008473ffffffffffffffffffffffffffffffffffffffff1673ffffffffffffffffffffffffffffffffffffffff16815260200190815260200160002060008282546123a2919061339a565b92505081905550816002600083815260200190815260200160002060006101000a81548173ffffffffffffffffffffffffffffffffffffffff021916908373ffffffffffffffffffffffffffffffffffffffff160217905550808273ffffffffffffffffffffffffffffffffffffffff16600073ffffffffffffffffffffffffffffffffffffffff167fddf252ad1be2c89b69c2b068fc378daa952ba7f163c4a11628f55a4df523b3ef60405160405180910390a4612463600083836120d9565b5050565b6000808273ffffffffffffffffffffffffffffffffffffffff163b119050919050565b6060824710156124cf576040517f08c379a00000000000000000000000000000000000000000000000000000000081526004016124c6906130f5565b60405180910390fd5b6124d885612467565b612517576040517f08c379a000000000000000000000000000000000000000000000000000000000815260040161250e90613255565b60405180910390fd5b6000808673ffffffffffffffffffffffffffffffffffffffff1685876040516125409190612e9a565b60006040518083038185875af1925050503d806000811461257d576040519150601f19603f3d011682016040523d82523d6000602084013e612582565b606091505b509150915061259282828661259e565b92505050949350505050565b606083156125ae578290506125fe565b6000835111156125c15782518084602001fd5b816040517f08c379a00000000000000000000000000000000000000000000000000000000081526004016125f59190612f93565b60405180910390fd5b9392505050565b828054612611906134da565b90600052602060002090601f016020900481019282612633576000855561267a565b82601f1061264c57805160ff191683800117855561267a565b8280016001018555821561267a579182015b8281111561267957825182559160200191906001019061265e565b5b509050612687919061268b565b5090565b5b808211156126a457600081600090555060010161268c565b5090565b60006126bb6126b6846132f5565b6132d0565b9050828152602081018484840111156126d357600080fd5b6126de848285613498565b509392505050565b60006126f96126f484613326565b6132d0565b90508281526020810184848401111561271157600080fd5b61271c848285613498565b509392505050565b60008135905061273381613c82565b92915050565b60008135905061274881613c99565b92915050565b60008151905061275d81613c99565b92915050565b60008135905061277281613cb0565b92915050565b60008151905061278781613cb0565b92915050565b600082601f83011261279e57600080fd5b81356127ae8482602086016126a8565b91505092915050565b600082601f8301126127c857600080fd5b81356127d88482602086016126e6565b91505092915050565b6000813590506127f081613cc7565b92915050565b60006020828403121561280857600080fd5b600061281684828501612724565b91505092915050565b6000806040838503121561283257600080fd5b600061284085828601612724565b925050602061285185828601612724565b9150509250929050565b60008060006060848603121561287057600080fd5b600061287e86828701612724565b935050602061288f86828701612724565b92505060406128a0868287016127e1565b9150509250925092565b600080600080608085870312156128c057600080fd5b60006128ce87828801612724565b94505060206128df87828801612724565b93505060406128f0878288016127e1565b925050606085013567ffffffffffffffff81111561290d57600080fd5b6129198782880161278d565b91505092959194509250565b6000806040838503121561293857600080fd5b600061294685828601612724565b925050602061295785828601612739565b9150509250929050565b6000806040838503121561297457600080fd5b600061298285828601612724565b9250506020612993858286016127e1565b9150509250929050565b6000602082840312156129af57600080fd5b60006129bd8482850161274e565b91505092915050565b6000602082840312156129d857600080fd5b60006129e684828501612763565b91505092915050565b600060208284031215612a0157600080fd5b6000612a0f84828501612778565b91505092915050565b600060208284031215612a2a57600080fd5b600082013567ffffffffffffffff811115612a4457600080fd5b612a50848285016127b7565b91505092915050565b600060208284031215612a6b57600080fd5b6000612a79848285016127e1565b91505092915050565b612a8b81613424565b82525050565b612a9a81613436565b82525050565b6000612aab82613357565b612ab5818561336d565b9350612ac58185602086016134a7565b612ace81613613565b840191505092915050565b6000612ae482613357565b612aee818561337e565b9350612afe8185602086016134a7565b80840191505092915050565b6000612b1582613362565b612b1f8185613389565b9350612b2f8185602086016134a7565b612b3881613613565b840191505092915050565b6000612b50602283613389565b9150612b5b82613624565b604082019050919050565b6000612b73602783613389565b9150612b7e82613673565b604082019050919050565b6000612b96603283613389565b9150612ba1826136c2565b604082019050919050565b6000612bb9601e83613389565b9150612bc482613711565b602082019050919050565b6000612bdc602583613389565b9150612be78261373a565b604082019050919050565b6000612bff601c83613389565b9150612c0a82613789565b602082019050919050565b6000612c22602a83613389565b9150612c2d826137b2565b604082019050919050565b6000612c45602483613389565b9150612c5082613801565b604082019050919050565b6000612c68601983613389565b9150612c7382613850565b602082019050919050565b6000612c8b602583613389565b9150612c9682613879565b604082019050919050565b6000612cae602683613389565b9150612cb9826138c8565b604082019050919050565b6000612cd1602c83613389565b9150612cdc82613917565b604082019050919050565b6000612cf4603883613389565b9150612cff82613966565b604082019050919050565b6000612d17602a83613389565b9150612d22826139b5565b604082019050919050565b6000612d3a602983613389565b9150612d4582613a04565b604082019050919050565b6000612d5d601e83613389565b9150612d6882613a53565b602082019050919050565b6000612d80602083613389565b9150612d8b82613a7c565b602082019050919050565b6000612da3602c83613389565b9150612dae82613aa5565b604082019050919050565b6000612dc6602083613389565b9150612dd182613af4565b602082019050919050565b6000612de9602183613389565b9150612df482613b1d565b604082019050919050565b6000612e0c603183613389565b9150612e1782613b6c565b604082019050919050565b6000612e2f601d83613389565b9150612e3a82613bbb565b602082019050919050565b6000612e52602a83613389565b9150612e5d82613be4565b604082019050919050565b6000612e75602183613389565b9150612e8082613c33565b604082019050919050565b612e948161348e565b82525050565b6000612ea68284612ad9565b915081905092915050565b6000602082019050612ec66000830184612a82565b92915050565b6000606082019050612ee16000830186612a82565b612eee6020830185612a82565b612efb6040830184612e8b565b949350505050565b6000608082019050612f186000830187612a82565b612f256020830186612a82565b612f326040830185612e8b565b8181036060830152612f448184612aa0565b905095945050505050565b6000604082019050612f646000830185612a82565b612f716020830184612e8b565b9392505050565b6000602082019050612f8d6000830184612a91565b92915050565b60006020820190508181036000830152612fad8184612b0a565b905092915050565b60006020820190508181036000830152612fce81612b43565b9050919050565b60006020820190508181036000830152612fee81612b66565b9050919050565b6000602082019050818103600083015261300e81612b89565b9050919050565b6000602082019050818103600083015261302e81612bac565b9050919050565b6000602082019050818103600083015261304e81612bcf565b9050919050565b6000602082019050818103600083015261306e81612bf2565b9050919050565b6000602082019050818103600083015261308e81612c15565b9050919050565b600060208201905081810360008301526130ae81612c38565b9050919050565b600060208201905081810360008301526130ce81612c5b565b9050919050565b600060208201905081810360008301526130ee81612c7e565b9050919050565b6000602082019050818103600083015261310e81612ca1565b9050919050565b6000602082019050818103600083015261312e81612cc4565b9050919050565b6000602082019050818103600083015261314e81612ce7565b9050919050565b6000602082019050818103600083015261316e81612d0a565b9050919050565b6000602082019050818103600083015261318e81612d2d565b9050919050565b600060208201905081810360008301526131ae81612d50565b9050919050565b600060208201905081810360008301526131ce81612d73565b9050919050565b600060208201905081810360008301526131ee81612d96565b9050919050565b6000602082019050818103600083015261320e81612db9565b9050919050565b6000602082019050818103600083015261322e81612ddc565b9050919050565b6000602082019050818103600083015261324e81612dff565b9050919050565b6000602082019050818103600083015261326e81612e22565b9050919050565b6000602082019050818103600083015261328e81612e45565b9050919050565b600060208201905081810360008301526132ae81612e68565b9050919050565b60006020820190506132ca6000830184612e8b565b92915050565b60006132da6132eb565b90506132e6828261350c565b919050565b6000604051905090565b600067ffffffffffffffff8211156133105761330f6135e4565b5b61331982613613565b9050602081019050919050565b600067ffffffffffffffff821115613341576133406135e4565b5b61334a82613613565b9050602081019050919050565b600081519050919050565b600081519050919050565b600082825260208201905092915050565b600081905092915050565b600082825260208201905092915050565b60006133a58261348e565b91506133b08361348e565b9250827fffffffffffffffffffffffffffffffffffffffffffffffffffffffffffffffff038211156133e5576133e4613586565b5b828201905092915050565b60006133fb8261348e565b91506134068361348e565b92508282101561341957613418613586565b5b828203905092915050565b600061342f8261346e565b9050919050565b60008115159050919050565b60007fffffffff0000000000000000000000000000000000000000000000000000000082169050919050565b600073ffffffffffffffffffffffffffffffffffffffff82169050919050565b6000819050919050565b82818337600083830152505050565b60005b838110156134c55780820151818401526020810190506134aa565b838111156134d4576000848401525b50505050565b600060028204905060018216806134f257607f821691505b60208210811415613506576135056135b5565b5b50919050565b61351582613613565b810181811067ffffffffffffffff82111715613534576135336135e4565b5b80604052505050565b60006135488261348e565b91507fffffffffffffffffffffffffffffffffffffffffffffffffffffffffffffffff82141561357b5761357a613586565b5b600182019050919050565b7f4e487b7100000000000000000000000000000000000000000000000000000000600052601160045260246000fd5b7f4e487b7100000000000000000000000000000000000000000000000000000000600052602260045260246000fd5b7f4e487b7100000000000000000000000000000000000000000000000000000000600052604160045260246000fd5b6000601f19601f8301169050919050565b7f5377617070694e46543a206578636565642074686520746f74616c207375707060008201527f6c79000000000000000000000000000000000000000000000000000000000000602082015250565b7f5377617070694e46543a207472616e7366657220746f20746865207a65726f2060008201527f6164647265737300000000000000000000000000000000000000000000000000602082015250565b7f4552433732313a207472616e7366657220746f206e6f6e20455243373231526560008201527f63656976657220696d706c656d656e7465720000000000000000000000000000602082015250565b7f5377617070694e46543a206d696e74206d6f7265207468616e206f6e63650000600082015250565b7f4552433732313a207472616e736665722066726f6d20696e636f72726563742060008201527f6f776e6572000000000000000000000000000000000000000000000000000000602082015250565b7f4552433732313a20746f6b656e20616c7265616479206d696e74656400000000600082015250565b7f5377617070694e46543a2055524920717565727920666f72206e6f6e6578697360008201527f74656e7420746f6b656e00000000000000000000000000000000000000000000602082015250565b7f4552433732313a207472616e7366657220746f20746865207a65726f2061646460008201527f7265737300000000000000000000000000000000000000000000000000000000602082015250565b7f4552433732313a20617070726f766520746f2063616c6c657200000000000000600082015250565b7f5377617070694e46543a2074686973206973206120636f6e747261637420616360008201527f636f756e74000000000000000000000000000000000000000000000000000000602082015250565b7f416464726573733a20696e73756666696369656e742062616c616e636520666f60008201527f722063616c6c0000000000000000000000000000000000000000000000000000602082015250565b7f4552433732313a206f70657261746f7220717565727920666f72206e6f6e657860008201527f697374656e7420746f6b656e0000000000000000000000000000000000000000602082015250565b7f4552433732313a20617070726f76652063616c6c6572206973206e6f74206f7760008201527f6e6572206e6f7220617070726f76656420666f7220616c6c0000000000000000602082015250565b7f4552433732313a2062616c616e636520717565727920666f7220746865207a6560008201527f726f206164647265737300000000000000000000000000000000000000000000602082015250565b7f4552433732313a206f776e657220717565727920666f72206e6f6e657869737460008201527f656e7420746f6b656e0000000000000000000000000000000000000000000000602082015250565b7f5377617070694e46543a206d696e74206973206e6f7420656e61626c65640000600082015250565b7f4552433732313a206d696e7420746f20746865207a65726f2061646472657373600082015250565b7f4552433732313a20617070726f76656420717565727920666f72206e6f6e657860008201527f697374656e7420746f6b656e0000000000000000000000000000000000000000602082015250565b7f5377617070694e46543a20746f6b656e2061646472657373206973207a65726f600082015250565b7f4552433732313a20617070726f76616c20746f2063757272656e74206f776e6560008201527f7200000000000000000000000000000000000000000000000000000000000000602082015250565b7f4552433732313a207472616e736665722063616c6c6572206973206e6f74206f60008201527f776e6572206e6f7220617070726f766564000000000000000000000000000000602082015250565b7f416464726573733a2063616c6c20746f206e6f6e2d636f6e7472616374000000600082015250565b7f5361666545524332303a204552433230206f7065726174696f6e20646964206e60008201527f6f74207375636365656400000000000000000000000000000000000000000000602082015250565b7f5377617070694e46543a206d75737420626520636f6e7472616374206f776e6560008201527f7200000000000000000000000000000000000000000000000000000000000000602082015250565b613c8b81613424565b8114613c9657600080fd5b50565b613ca281613436565b8114613cad57600080fd5b50565b613cb981613442565b8114613cc457600080fd5b50565b613cd08161348e565b8114613cdb57600080fd5b5056fea2646970667358221220e94fdf573e9e60728b0568d7bb582cffd387c465a480eb6896583d1db44eb6c364736f6c63430008040033",
  "linkReferences": {},
  "deployedLinkReferences": {}
}